:020000040000FA
:10000000D00D0020D5000000F5000000CD0100005B
:1000100000000000000000000000000000000000E0
:10002000000000000000000000000000F9000000D7
:1000300000000000000000004B010000C915000096
:10004000FF000000FF000000FF000000FF000000B4
:10005000FF000000FF000000FF000000FF000000A4
:10006000FF000000FF000000FF000000FF00000094
:10007000F1160000FF000000FF000000FF0000007C
:10008000FF000000FF000000FF000000FF00000074
:10009000FF000000FF000000FF000000FF00000064
:1000A000FF000000FF000000FF000000FF00000054
:1000B000FF000000FF000000FF000000FF00000044
:1000C0000348854600F05CF900480047354A0000C7
:1000D000D00D00200A480B4901600B4901600B4913
:1000E00001600B4A0B491160002101600A488047FA
:1000F0000A480047FEE7FEE7FEE7FEE7FEE7FEE709
:1001000000010050590000001600000088000000A7
:1001100024000050A55A00003D160000C100000058
:10012000EFF3108072B6704780F3108870472A4A48
:100130001368012B03D001231360284A1060284A5A
:1001400011602848284901607047EFF3108272B6A9
:100150002148016800291DD0002101601F48016865
:1001600000290AD0EFF30981203900680160F0C14D
:1001700044464D4656465F46F0C11949096809682C
:10018000F0C9F0B4F0C9A046A946B246BB46F0BCDF
:1001900081F3098882F31088042040420047104907
:1001A00008600E49002008600B49012008600F48D4
:1001B0000F490268114301600A480B4901600D486C
:1001C0000068006880F3088862B67047EFF3098022
:1001D00000B505F083FD00BDB0000020A8000020A0
:1001E000AC00002004ED00E00000001020ED00E075
:1001F0000000FF0008ED00E030B50B46014600208E
:100200002022012409E00D46D5409D4205D31D461C
:100210009540491B2546954040191546521E002D14
:10022000F1DC30BD70B500242546002801DA012438
:100230004042002901DA01254942FFF7DDFFAC42C7
:1002400000D04042002C00D0494270BD03460B4311
:100250009B0703D009E008C9121F08C0042AFAD27C
:1002600003E00B780370401C491C521EF9D2704702
:10027000D2B201E00270401C491EFBD2704700223E
:10028000F6E710B513460A4604461946FFF7F0FF95
:10029000204610BD10B5044605E00B780370401CE5
:1002A000002B00D0491C521EF7D2204610BD421C24
:1002B0000178401C0029FBD1801A704710B500223C
:1002C00000E0521C835C8C5CA34201D1002BF8D16E
:1002D000D8B2E1B2401A10BD30B505460020034641
:1002E00000E05B1C934205D2EC5CC85C201A01D193
:1002F000002CF6D130BD70B5064601F075FA0468E1
:1003000005460A220021304600F002F82C6070BD3C
:10031000F7B5009C0F4600262578641C002D05D0FB
:1003200000F040F80068405DC007F5D12B2D02D0E9
:100330002D2D18D0641E39462046029A00F036F85A
:10034000002F04D03968A14201D1009939607105AC
:10035000022400290BDA4042002803DD01F044FAB0
:100360000460A007FEBD012080020643E3E70028E9
:10037000F8DA01F039FA04600048FEBDFFFFFF7FA4
:10038000064C0125064E05E0E36807CC2B430C3CE8
:1003900098471034B442F7D3FFF796FE4C82000022
:1003A0006C820000004870471C7E0000F7B582B0E8
:1003B000029C00272078641C15460197302802D043
:1003C000002D15D015E020780127641C782804D072
:1003D000582802D0002D09D00BE0002D01D0102D9F
:1003E00007D1002710252078641C02E0082500E0D2
:1003F0000A250026009610E0009901276943081895
:10040000020C294680B2714300908E18380486424F
:1004100001D3012001902078641C294600F019F8CE
:100420000028E9DA0398002805D0002F01D0641EC7
:1004300000E0029C04600198002806D001F0D4F985
:1004400002210160C81E05B0F0BD009930040843C8
:10045000F9E73A2800D23038202302469A43412A4D
:1004600001D310463738884201D30020C04370477B
:1004700070B58C180578401C6B075B0F01D10378B1
:10048000401C2A1106D10278401C03E006780E7049
:10049000401C491C5B1EF9D12B0705D40023521EBA
:1004A0000DD40B70491CFAE70378401CCB1A921C40
:1004B00003E01D780D70491C5B1C521EF9D5A1424A
:1004C000D8D3002070BD0000C10F8900064A8918EA
:1004D0008968C306DB0E01229A401143C20F9200C5
:1004E000014BD2189160704700020050F3B583B001
:1004F0000C460398002809D13D48006A0121C9042F
:1005000088433B4908623B48029008E03848006A4B
:100510000121C90408433649086237480290374828
:10052000844204D84010844201D9002722E0344894
:10053000844205D84010844202D90127640019E0A2
:100540003048844205D84010844202D30327A400D7
:1005500010E00398002803D12B482549086202E0E7
:100560002A4823490862042000F08EF900F09AF826
:1005700005B0F0BD26492046FFF73EFE0646244959
:100580000298FFF739FE05460EE0E807C00F002885
:1005900007D1F007C00F002803D1022D01D0022E91
:1005A00000D102E06D087608EFE700BFB803A91E8E
:1005B00049020843B11E084301900D48006A010C2E
:1005C0000904019801430A480162006A05210904EF
:1005D000884307490862042000F056F97A1C6A43F0
:1005E0001146029A72431046FFF706FEC0E700006C
:1005F00000020050001BB7000080510100C2EB0B4D
:1006000000E1F50580F0FA022EC200006FD600006E
:1006100040420F00024909680143014A11607047D6
:1006200000020050FEB5002002901AA00068009061
:100630001948046A00132040002801D00020FEBDA4
:100640000120C0042040002801D0144D00E0144DCA
:10065000012040042040002801D02846EFE7032075
:1006600080032040800B69460A5C0192E005C00DC2
:10067000861C1F2040022040400A871C019A7A43B2
:100680001146AA0872431046FFF7B6FD800002909B
:100690000298D4E7010202040002005000805101D8
:1006A000001BB700FEB5002002901AA00068009061
:1006B0001948046A00132040002801D00020FEBD24
:1006C0000120C0042040002801D0144D00E0144D4A
:1006D000012040042040002801D02846EFE70320F5
:1006E00080032040800B69460A5C0192E005C00D42
:1006F000861C1F2040022040400A871C019A7A4332
:100700001146AA0872431046FFF776FD800002905A
:100710000298D4E701020204000200500080510157
:10072000001BB700FEB5002002901AA000680090E0
:100730001948046A00132040002801D00020FEBDA3
:100740000120C0042040002801D0144D00E0144DC9
:10075000012040042040002801D02846EFE7032074
:1007600080032040800B69460A5C0192E005C00DC1
:10077000861C1F2040022040400A871C019A7A43B1
:100780001146AA0872431046FFF736FD800002901A
:100790000298D4E7010202040002005000805101D7
:1007A000001BB70010B504461048844201D9044626
:1007B00003E00F48844200D204460E480068C00798
:1007C000C00F002805D021460020FFF78FFE044609
:1007D00005E021460120C004FFF788FE0446002101
:1007E000022000F009F8204610BD000080F0FA0257
:1007F00040787D010002005070B504460D4608485F
:100800000069C008C00020430549086108468069A6
:10081000000900012843886100F0DEFE70BD000081
:1008200000020050F0B50B46002100240025C60050
:10083000360F002E0FD04600B60FB600114FF41938
:100840002168C600370FC601F60EB7400E46BE43FC
:100850001E43314621608603360E002E10D006035B
:10086000B60FB600074F0837F51929688603360E0C
:10087000F6438705FF0EBE400E4016433146296001
:10088000F0BD000010020050064904E00A46491E6F
:10089000002A00DC04E0044AD26802408242F5D11A
:1008A00000BF704790D003000002005070B50346AF
:1008B00000200FE0012484400C40002C09D01C686B
:1008C00046000325B540AC4346001546B5402C43D1
:1008D0001C60401C0828EDD370BD000010B5002836
:1008E00019DA1A4A03071B0F083B9B089B00D258D2
:1008F0008307DC0EFF23A3409A438B071B0E84075C
:10090000E40EA3401A43114B0407240F083CA4082B
:10091000A4001A5118E00E4A03231B02D2188308C0
:100920009B00D2588307DC0EFF23A3409A438B071A
:100930001B0E8407E40EA3401A43054B0324240234
:100940001B198408A4001A5110BD00001CED00E022
:1009500000E100E000BF0A4800682038017E084836
:1009600000682038007F0818C1B2054800682038A8
:10097000017603480068001F0149086000BF704706
:100980002001002000BF0A4800688038816F0848B5
:1009900000688038C06F0918054800688038816792
:1009A00003480068001F0249086000BF704700004C
:1009B0002001002000BF0A4800684038018F084825
:1009C00000684038808F081801B205480068403838
:1009D000018703480068001F0149086000BF704795
:1009E0002001002000BF0A4800682038007E084926
:1009F00009682039097F08400549096820390876C7
:100A000003480068001F0249086000BF70470000EB
:100A10002001002000BF0A4800688038806F084924
:100A200009688039C96F08400549096880398867B5
:100A300003480068001F0249086000BF70470000BB
:100A40002001002000BF0B48016840393820085EB3
:100A50000849096840393C228A5E10400549096806
:100A60004039088703480068001F0249086000BF3A
:100A70007047000020010020054800682038007FF2
:100A8000C043C1B2024800682038017770470000B7
:100A900020010020044800688038C06FC14302482C
:100AA00000688038C1677047200100200548006851
:100AB00040383C21415EC943024800684038818784
:100AC000704700002001002010B5A4B0DF48006886
:100AD00000781390DD480068401CDC490860002065
:100AE0001290DB480068001FD949086011E0D8481F
:100AF000006802681398401E1299401A800014A9D9
:100B00000A50D3480068001FD14908601298401C61
:100B10001290139912988842E9D3CD480068006872
:100B200011901398030000F051FE110A0F151E2AB0
:100B300038485A6E849CB6D2F5F3F2F1F0000020EA
:100B400011998847109074E114980F901199884773
:100B500010906EE115980F9014980E90119A0F99BD
:100B60009047109065E116980F9015980E90149884
:100B70000D90119B0F9A0E999847109059E1179874
:100B80000F9016980E9015980D9014980C90119C3B
:100B90000DA90EC9A04710904BE118980090179826
:100BA0000F9016980E9015980D9014980C90119C1B
:100BB0000DA90EC9A04710903BE119991898019111
:100BC000009017980F9016980E9015980D90149805
:100BD0000C90119C0DA90EC9A047109029E1199AFB
:100BE00018991A9801920091029017980F901698F0
:100BF0000E9015980D9014980C90119C0DA90EC98B
:100C0000A047109015E1199B1B9A18991A98019307
:100C100003920091029017980F9016980E901598D5
:100C20000D9014980C90119C0DA90EC9A04710901E
:100C3000FFE01A9B1B9A1C99199802930392049146
:100C400001901898009017980F9016980E9015988C
:100C50000D9014980C90119C0DA90EC9A0471090EE
:100C6000E7E01B9B1C9A1A991D980393049202912A
:100C70000590199918980191009017980F9016985F
:100C80000E9015980D9014980C90119C0DA90EC9FA
:100C9000A0471090CDE01C9B1E9A1D991B980493B1
:100CA000069205910390199A18991A980192009149
:100CB000029017980F9016980E9015980D90149812
:100CC0000C90119C0DA90EC9A0471090B1E01D9B7E
:100CD0001E9A1C991F980593069204910790199BE0
:100CE000189A1A991B9801930092029103901798F1
:100CF0000F9016980E9015980D9014980C90119CCA
:100D00000DA90EC9A047109093E08FE068E043E082
:100D100020E0FFE71E9B1D9A1F99209806930592DD
:100D2000079108901A9B199A1B991C98029301929B
:100D3000039104901898009017980F9016980E90B1
:100D400015980D9014980C90119C0DA90EC9A047F0
:100D500010906EE01F9B209A1E992198079308928D
:100D6000069109901B9B1D9A1C991A980393059252
:100D700004910290199918980191009017980F907A
:100D800016980E9015980D9014980C90119C0DA922
:100D90000EC9A04710904CE0209B219A1F992298E1
:100DA0000893099207910A901C9B1B9A1D991E9803
:100DB0000493039205910690199A18991A98019232
:100DC0000091029017980F9016980E9015980D901C
:100DD00014980C90119C0DA90EC9A047109028E002
:100DE000219B239A2099229809930B9208910A90AB
:100DF0001D9B1E9A1C991F980593069204910790BB
:100E0000199B189A1A991B980193009202910390CA
:100E100017980F9016980E9015980D9014980C90A6
:100E2000119C0DA90EC9A047109002E0002010905F
:100E300000BF00BF064910980968086004480068B0
:100E4000001D0349086024B010BD000024010020EB
:100E50002001002010B500BF0A4A1268203A117F15
:100E6000084A1268203A107EFFF7DCF9C1B2054843
:100E700000682038017603480068001F01490860B7
:100E800000BF10BD2001002010B500BF0A4A126843
:100E9000803AD16F084A1268803A906FFFF7C2F922
:100EA000054909688039886703480068001F0249BE
:100EB000086000BF10BD00002001002010B500BF79
:100EC0000B4A1268403A3C21515E094A1268403A86
:100ED0003820105EFFF7A6F901B2054800684038D7
:100EE000018703480068001F0149086000BF10BD6A
:100EF0002001002008480068007808490968087047
:100F000006480068001D0549086003480068401C49
:100F100001490860704700002401002020010020E2
:100F20000F48006800780E490968497809020843AB
:100F30000B49096889780904084309490968C9788F
:100F40000906084307490968086006480068001D4B
:100F50000449086002480068001D014908607047A4
:100F600024010020200100201049096809780F4A57
:100F700012685278120211430C4A126892781204D5
:100F800011430A4A1268D2781206114308460178C2
:100F9000074A1268117006490968091D044A116060
:100FA00002490968091D014A1160704724010020A7
:100FB00020010020044909688039C86F027802497D
:100FC000096820390A777047200100201049096814
:100FD00009780F4A12685278120211430C4A1268BB
:100FE0009278120411430A4A1268D2781206114309
:100FF0000846084A01681268116006490968091D17
:10100000044A116002490968091D014A11607047CC
:101010002401002020010020044909688039C86F9C
:101020000249026809688039CA67704720010020B8
:101030001049096809780F4A126852781202114360
:101040000C4A12689278120411430A4A1268D27844
:101050001206114308460188074A126811800649A2
:101060000968091D044A116002490968091D014AFD
:101070001160704724010020200100200449096804
:101080008039C86F02880249096840398A877047E9
:10109000200100200B48006800780A490968497857
:1010A0000902084300B20849096808800648006838
:1010B000001D0549086003480068801C014908605C
:1010C00070470000240100202001002010B500BF5F
:1010D0000A4A1268203A117F084A1268203A107EA4
:1010E000FFF7A0F80548006820380176034800683B
:1010F000001F0249086000BF10BD00002001002051
:1011000010B500BF0A4A1268803AD16F084A1268C7
:10111000803A906FFFF786F805480068803881674D
:1011200003480068001F0249086000BF10BD0000AE
:101130002001002010B500BF0B4A1268403A3C2144
:10114000515E094A1268403A3820105EFFF76AF88B
:10115000054800684038018703480068001F0249BD
:10116000086000BF10BD00002001002000BF0A4839
:1011700000682038007E084909682039097F484303
:10118000C1B2054800682038017603480068001F96
:101190000149086000BF70472001002000BF0A48D5
:1011A00000688038806F084909688039C96F4843F2
:1011B000054909688039886703480068001F0249AB
:1011C000086000BF704700002001002000BF0A48EF
:1011D00000684038008F084909684039898F4843C2
:1011E00001B2054800684038018703480068001FC5
:1011F0000149086000BF70472001002070470000CF
:1012000000BF0A4800682038007E08490968203974
:10121000097F0843054909682039087603480068B2
:10122000001F0249086000BF704700002001002035
:1012300000BF0A4800688038806F08490968803913
:10124000C96F084305490968803988670348006801
:10125000001F0249086000BF704700002001002005
:1012600000BF0B48016840393820085E084909680A
:1012700040393C228A5E1043054909684039088795
:1012800003480068001F0249086000BF7047000063
:101290002001002002480068001F014908607047D3
:1012A0002001002000BF0A4800682038007E08495D
:1012B00009682039097F8840C1B205480068203894
:1012C000017603480068001F0149086000BF7047AD
:1012D0002001002000BF0A4800688038806F08495C
:1012E00009688039C96F884005490968803988676D
:1012F00003480068001F0249086000BF70470000F3
:101300002001002000BF0A4800684038008F0849CB
:1013100009684039898F884001B205480068403823
:10132000018703480068001F0149086000BF70473B
:101330002001002000BF0A4800682038007E0849CC
:1013400009682039097F084105490968203908766C
:1013500003480068001F0249086000BF7047000092
:101360002001002000BF0A4800688038806F0849CB
:1013700009688039C96F084105490968803988675B
:1013800003480068001F0249086000BF7047000062
:101390002001002000BF0A48016840393820085E5B
:1013A000074909684039898F08410549096840396A
:1013B000088703480068001F0149086000BF7047A4
:1013C00020010020074800682038017F0548006898
:1013D0008038806F017003480068001F0149086071
:1013E0007047000020010020074800688038C16F66
:1013F000054800688038806F016003480068001F5E
:10140000014908607047000020010020074800687B
:101410004038818F054800688038806F018003481C
:101420000068001F0149086070470000200100208B
:1014300000BF0A4800682038017E0848006820384C
:10144000007F081AC1B205480068203801760348B9
:101450000068001F0149086000BF7047200100209C
:1014600000BF0A4800688038816F084800688038EB
:10147000C06F091A05480068803881670348006812
:10148000001F0249086000BF7047000020010020D3
:1014900000BF0A4800684038018F0848006840389B
:1014A000808F081A01B20548006840380187034858
:1014B0000068001F0149086000BF7047200100203C
:1014C00000BF0A4800682038007E084909682039B2
:1014D000097F4840054909682039087603480068B3
:1014E000001F0249086000BF704700002001002073
:1014F00000BF0A4800688038806F08490968803951
:10150000C96F484005490968803988670348006801
:10151000001F0249086000BF704700002001002042
:1015200000BF0B48016840393820085E0849096847
:1015300040393C228A5E5040054909684039088795
:1015400003480068001F0249086000BF70470000A0
:10155000200100200B49020E92008958012282408E
:101560001143084A030E9B00D1501146020E92000F
:101570008958012282409143024A030E9B00D150B8
:10158000704700000800005000B50346184600F000
:1015900001F800BD00BF0B4989690122D205114045
:1015A0000029F8D1074908600A280AD100BF054977
:1015B00089690122D20511400029F8D10D21014A83
:1015C000116070470000054010B504F0D7FC05F02D
:1015D000BBFB04F0E9FC10BD70B51248006945077B
:1015E0006D0FFFF71FF810490860022D03D0A80007
:1015F0000E490C5801E00C4804680A48806900074D
:10160000000F461C31462046FEF7F6FD08490860EB
:101610000849074800684A108018FEF7EDFD0649A2
:10162000086070BD0002005010000020D07A000059
:101630000800002040420F000C00002010B50023DD
:10164000244C23600022244B1B695907490F0029B1
:1016500012D1224B204C2362214804E00346401E55
:10166000002B00DC05E01C4BDB6804242340002B2E
:10167000F4D000BF012213E0072911D1194B164CF9
:101680002362194804E00346401E002B00DC05E0FD
:10169000114BDB6804242340002BF4D000BF01224F
:1016A000002A16D000BF06E05923104C23601623F1
:1016B0002360882323600D4B1B68012BF4D100BFEE
:1016C0000223054C236100BF0023084C236000BFA8
:1016D00000BF10BD100000200002005017420000A3
:1016E000E02E000039560800665600000001005048
:1016F00010B504F043FC0648C069C007C00F0028BD
:1017000003D00121034804F06DFB04F04DFC10BD33
:101710000000054034010020F0B585B004460D46B8
:101720001E4801460EC9C0686E460EC603900027CB
:101730001B484069032109060840060E002020636B
:101740000320E060A06817490840A060012E04D182
:10175000FEF7E8FFB1006A465050002D1BD0B100E3
:101760006A4651586A0888182946FEF745FD871EC3
:101770000D4887420BD9B1006A465158EA008818D3
:101780002946FEF739FD0009801E606203E0032050
:1017900000073843606205B0F0BD0000F07A000039
:1017A000000200500FFFF0FFFFFF00000FB410B564
:1017B00003A9044B044A029800F096FA10BC08BC36
:1017C00004B01847394600002C01002030B474469C
:1017D000641E2578641CAB4204D3635D5B00E31890
:1017E00030BC18471D46F8E700487047300100201C
:1017F0000146002900D17047C8B2002804D0C8B201
:10180000114A105C401CF6E7FF2000020840002847
:1018100007D0FF2000020840000A0B4A105C093084
:10182000E9E7FF2000040840002807D0FF2000045B
:101830000840000C044A105C1130DCE7080E024A34
:10184000105C1930D7E70000207B000002E008C8D8
:10185000121F08C1002AFAD170477047002001E02A
:1018600001C1121F002AFBD170470000034908681C
:10187000884201D0012070470020FCE78C00002046
:10188000F0B599B0064650221C4905A8FEF7DEFCCB
:101890001BA00390039804F07BFF0490304603F0F4
:1018A000A5F907460498874200DA049F394616A036
:1018B000039A04F0C3FB384603F0B8F91CA004F007
:1018C000BDFB356814E02C460C3CA17E207D13281E
:1018D00004DC207D800005AA105800E018982346FB
:1018E00008220191009039461AA004F0A7FB2D6848
:1018F000B542E8D1002019B0F0BD0000447C0000E2
:101900006465766963650000252D2A2E73202020EA
:101910002020202020207479706520202020202085
:1019200020202072656620636F756E740A000000C7
:10193000202D2D2D2D2D2D2D2D2D2D2D2D2D2D2DE4
:101940002D2D2D2D2D202D2D2D2D2D2D2D2D2D2DD4
:101950000A000000252D2A2E2A7320252D323073EF
:1019600020252D38640A0000FEB50646304603F0F7
:101970003DF90746092F00DA092721A2394623A09D
:1019800004F05CFB384603F051F927A004F056FB45
:10199000356830E02C460C3C20461430016881420A
:1019A00001D1012100E00021002915D12046143089
:1019B00004F0BBFB0290A18B23460822009101900A
:1019C00039461FA004F03AFB2046143005F0E8FC2D
:1019D00014A004F033FB0DE02046143004F0A5FB06
:1019E0000290A18B2346082200910190394618A04D
:1019F00004F024FB2D68B542CCD10020FEBD0000D0
:101A000073656D6170686F7265000000252D2A2E68
:101A100073207620202073757370656E642074685F
:101A2000726561640A000000202D2D2D202D2D2DC2
:101A30002D2D2D2D2D2D2D2D2D2D2D0A00000000AD
:101A4000252D2A2E2A7320253033642025643A0060
:101A5000252D2A2E2A7320253033642025640A0080
:101A6000F0B585B00546284603F0C0F803902EA2D5
:101A70002F48039904F0E2FA039803F0D7F82DA059
:101A800004F0DCFA2F6849E03C460C3C3520005D50
:101A900023460822009037A0039904F0CFFA34209F
:101AA000005D012803D136A004F0C8FA16E0342006
:101AB000005D022803D135A004F0C0FA0EE0342006
:101AC000005D002803D134A004F0B8FA06E0342009
:101AD000005D042802D133A004F0B0FAA66A00E049
:101AE000761C30782328FBD0A36AF31AE26AD21A54
:101AF00064235A431046E16AFEF77EFB0290216B95
:101B0000206C01910090E369A06AC01AE36AC118D1
:101B10001A4627A0029B04F091FA3F68AF42B3D166
:101B2000002005B0F0BD00007468726561640000BB
:101B3000207E0000202D2D2D20202D2D2D2D2D2D12
:101B40002D202D2D2D2D2D2D2D2D2D2D202D2D2DDF
:101B50002D2D2D2D2D2D2D20202D2D2D2D2D2D20DC
:101B6000202D2D2D2D2D2D2D2D2D2D202D2D2D0AE2
:101B700000000000252D2A2E2A7320253364200022
:101B80002072656164792020000000002073757365
:101B900070656E640000000020696E69742020206A
:101BA0000000000020636C6F7365202000000000BF
:101BB000203078253038782030782530387820204B
:101BC000202025303264252520202030782530380B
:101BD0007820253033640A00FEB50546284603F018
:101BE00005F8074618A2394619A004F027FA384626
:101BF00003F01CF820A004F021FA2E6818E0344607
:101C00000C3CA16A606A2346082201910090394683
:101C100022A004F013FA607AC007C00F002803D096
:101C200024A004F00BFA02E025A004F007FA3668BD
:101C3000AE42E4D105F082F80146019024A004F000
:101C4000FDF90020FEBD000074696D6572000000A2
:101C5000252D2A2E732020706572696F64696320B8
:101C6000202074696D656F7574202020202020204D
:101C7000666C61670A000000202D2D2D2D2D2D2D65
:101C80002D2D2D202D2D2D2D2D2D2D2D2D2D202D9E
:101C90002D2D2D2D2D2D2D2D2D2D0A00252D2A2ECE
:101CA0002A732030782530387820307825303878FD
:101CB000200000006163746976617465640A000045
:101CC00064656163746976617465640A000000008C
:101CD00063757272656E74207469636B3A3078252F
:101CE0003038780A00000000FFB58DB004460025AA
:101CF00006E025280AD0109A0F999047641C6D1CA5
:101D000020780028F5D1284611B0F0BD0027012128
:101D1000484A009700E00743641C23780846203BAC
:101D200098401042F7D120782E2817D1042007437D
:101D30006078641C2A280CD10E98641C02C800919B
:101D40000E900BE000990A22514330394018641C70
:101D500000902078014630390929F3D920780028ED
:101D6000D1D0642808D0692806D075281ED0109AD2
:101D70000F9990476D1C5BE00A200E99019001C9F4
:101D80000E91002802DA40422D2102E0390504D5E7
:101D90002B216A461172012103E0F90704D02021AA
:101DA000F7E70BAE0B910DE00021FAE70A200E9940
:101DB000019001C90E91F7E70199FEF71DFA303144
:101DC000761E31700028F7D103A8801B20300190C7
:101DD000780701D5009801E0012000900199884220
:101DE00001DD401A00E000200027009006E002A874
:101DF000109AC05D0F9990476D1C7F1C0B9887420D
:101E0000F5DB04E0109A30200F9990476D1C009983
:101E1000481E00900029F5DC05E03078109A761C09
:101E20000F9990476D1C0199481E01900029F4DC20
:101E3000641C65E709280100FEB5044615461E46E8
:101E40000A9F204614304060006000BF2562666231
:101E50000898A0620998E0622321E26AA06A04F06F
:101E600058FAE16AA06A4018021F606A0190206A6D
:101E7000104B0090019904F061F8E061362007559D
:101E8000352007550B98E0630B98206400202063F1
:101E90000021342001550020206760670090234610
:101EA000054A214601902046443004F0D3FF00202B
:101EB000FEBD0000416A0000736C0000FFB581B0F8
:101EC00004460E4617460A986072607A4008400041
:101ED0006072E66127620020A062049860620025BB
:101EE00006E0EA0021461431501804F0E0F86D1CB9
:101EF000012DF6DB05B0F0BD10B50246002001460D
:101F00000EE0CC0013461433E018046843686360A5
:101F10004468036823604060006000BF481C0146BD
:101F20000129EEDB10BD02461368002B01D11160C0
:101F300070471068884202D948601160F8E710685D
:101F400008E043688B4200D906E04368002B00D1CB
:101F500002E040680028F4D100BF4368002B01D0A4
:101F600043684B60416000BFE2E730B503464A6812
:101F70001C688C4201D1002009E0186804E0446824
:101F80008C4200D102E040680028F8D100BF002850
:101F90001DD00468241808348C4218D1002A0ED0B1
:101FA0000C6864180834944209D10C6815686419E7
:101FB00010340568641904605468446015E00568CD
:101FC0000C6808342C1904604C6844600DE0002A49
:101FD0000BD00C6864180834944206D10D6814685C
:101FE00008342C190C6054684C6030BD02461068EF
:101FF000884204D14B68136000234B60704710681F
:1020000006E043688B4202D14B68436002E04068BF
:102010000028F6D100BF00BFF0E7034608335A1886
:102020000368083B5B1A13600160436853604260B9
:102030007047000010B50446002C01D101F069FB87
:102040002069002802D02069FFF7F4FF20781C28BF
:1020500001D301F053FB43007B449B885B009F440A
:102060004D0B1B00ED0103020402310230025A0243
:102070008202AD02D80203032E0359038403AF0387
:10208000DA030504320452044D0B000544068307AD
:102090004209180B4C0B010BA078042108400028C2
:1020A0002BD000BF2420FE4909680870FC48006856
:1020B000401CFB49086000BF00BF00BFA068007A59
:1020C00009680870A06800890004000EF4490968D6
:1020D0004870A06880680002000EF14909688870A5
:1020E000A0688068000EEE490968C87000BFEC481F
:1020F0000068001DEA4908609FE1A07802210840BD
:1021000000287DD0A06800287BD0017AC91E0B0072
:10211000FFF75CFB0C07088442438580818682833D
:1021200087C100BFA1780822114000290AD000BF52
:102130002421DB4A12681170D9490968491CD84A20
:1021400011600AE000BF2521D54A12681170D449F8
:102150000968491CD24A116000BF00BF00BF017B63
:10216000CF4A1268117081890904090ECC4A12689D
:102170005170C1680902090EC94A12689170C1689C
:10218000090EC74A1268D17000BFC5490968091D08
:10219000C34A116000BF7EE000BFA1780822114051
:1021A00000290AD000BF2421BD4A12681170BC4921
:1021B0000968491CBA4A11600AE000BF2621B84AE2
:1021C00012681170B6490968491CB54A116000BF10
:1021D00000BF00BF017BB24A1268117081890904F7
:1021E000090EAF4A12685170C1680902090EAC4A63
:1021F00012689170C168090EA94A1268D17001E095
:102200004BE049E000BFA6490968091DA44A1160D6
:1022100000BF40E000BF00BF00BF00BF00BF00BF65
:1022200000BFA1780822114000290AD000BF242154
:102230009B4A126811709A490968491C984A1160B2
:102240000AE000BF2721964A126811709449096874
:10225000491C934A116000BF00BF00BF017B904A38
:102260001268117081890904090E8D4A1268517033
:10227000C1680902090E8A4A12689170C168090E84
:10228000874A1268D17000BF85490968091D844AD0
:10229000116000BF00BF00BFCFE0A06800287DD064
:1022A000417CC91E0B00FFF791FA0C0708874445D3
:1022B0008883848985868AC600BFA1780822114058
:1022C00000290AD000BF2421754A12681170744990
:1022D0000968491C724A11600AE000BF2521704A52
:1022E000126811706E490968491C6D4A116000BF7F
:1022F00000BF00BF01461431694A12681170090419
:10230000090E674A12685170014614310902090E1C
:10231000634A1268917001461431090E604A1268CE
:10232000D17000BF5E490968091D5D4A116000BF98
:1023300081E000BFA1780822114000290AD000BF27
:102340002421574A1268117055490968491C544A9A
:1023500011600AE000BF2621514A126811705049ED
:102360000968491C4E4A116000BF00BF00BF01460A
:1023700014314B4A126811700904090E484A126858
:102380005170014614310902090E454A12689170D4
:1023900001461431090E424A126800E04CE0D17047
:1023A00000BF3F490968091D3D4A116000BF42E076
:1023B00000BF00BF00BF00BF00BF00BF00BFA178CB
:1023C0000822114000290AD000BF2421344A126893
:1023D000117033490968491C314A11600AE000BF95
:1023E00027212F4A126811702D490968491C2C4A6F
:1023F000116000BF00BF00BF01461431284A1268B7
:1024000011700904090E264A1268517001461431F0
:102410000902090E224A1268917001461431090E10
:102420001F4A1268D17000BF1D490968091D1C4A66
:10243000116000BF00BF00BF00BFFDE300BF22204E
:1024400017490968087016480068401C144908605C
:1024500000BF00BF20790968087011480068401C5F
:102460000F49086000BFE8E700BF00BF24200C4907
:10247000096808700A480068401C0949086000BFE4
:1024800000BF00BF207909680870A0880004000E12
:1024900003490968487060680002000E004901E0C5
:1024A000D0000020096888706068000EFD49096846
:1024B000C87000BFFB480068001DFA49086000BFF3
:1024C000BBE700BF00BF2420F64909680870F54843
:1024D0000068401CF349086000BF00BF00BF2079BE
:1024E00009680870A0880004000EEE490968487069
:1024F00060680002000EEB49096888706068000E91
:10250000E8490968C87000BFE6480068001DE54951
:10251000086000BF91E76078012809D100BFE14958
:1025200009680870DF480068401CDE49086019E04F
:102530006078022809D100BFDA4909680870D948D3
:102540000068401CD74908600CE06078032809D176
:1025500000BFD44909680870D2480068401CD149BE
:10256000086000BF69E7607801280AD100BF042035
:10257000CC4909680870CB480068401CC94908600C
:102580001BE0607802280AD100BF0520C549096810
:102590000870C4480068401CC24908600DE06078BB
:1025A00003280AD100BF0620BE4909680870BD484B
:1025B0000068401CBB49086000BF3EE76078012806
:1025C0000AD100BF0D20B74909680870B5480068F6
:1025D000401CB44908601BE0607802280AD100BFA3
:1025E0000E20B04909680870AE480068401CAD492B
:1025F00008600DE0607803280AD100BF0F20A949C8
:1026000009680870A7480068401CA649086000BF18
:1026100013E7607801280AD100BF0720A1490968A3
:102620000870A0480068401C9E4908601BE0607864
:1026300002280AD100BF08209A4909680870994801
:102640000068401C974908600DE0607803280AD1B3
:1026500000BF092093490968087092480068401C2F
:102660009049086000BFE8E6607801280AD100BF01
:102670000A208C49096808708A480068401C89490A
:1026800008601BE0607802280AD100BF0B20854952
:102690000968087083480068401C824908600DE0A2
:1026A000607803280AD100BF0C207E4909680870B1
:1026B0007C480068401C7B49086000BFBDE660782C
:1026C00001280AD100BF10207649096808707548B2
:1026D0000068401C734908601BE0607802280AD13A
:1026E00000BF11206F49096808706E480068401CDF
:1026F0006C4908600DE0607803280AD100BF122001
:1027000068490968087067480068401C65490860A6
:1027100000BF92E6607801280AD100BF132061490A
:10272000096808705F480068401C5E4908601BE04B
:10273000607802280AD100BF14205A49096808703D
:1027400058480068401C574908600DE0607803282D
:102750000AD100BF15205349096808705148006824
:10276000401C5049086000BF67E6607801280AD124
:1027700000BF16204B49096808704A480068401C91
:10278000484908601BE0607802280AD100BF172082
:1027900044490968087043480068401C4149086082
:1027A0000DE0607803280AD100BF18203D49096870
:1027B00008703C480068401C3A49086000BF3CE68D
:1027C000607801280AD100BF1920364909680870CD
:1027D00034480068401C334908601BE060780228D8
:1027E0000AD100BF1A202F49096808702D480068D7
:1027F000401C2C4908600DE0607803280AD100BF16
:102800001B2028490968087026480068401C254993
:10281000086000BF11E6607801280AD100BF1C20C3
:102820002049096808701F480068401C1D4908605D
:102830001BE0607802280AD100BF1D2019490968F1
:10284000087018480068401C164908600DE0607860
:1028500003280AD100BF1E201249096808701148D8
:102860000068401C0F49086000BFE6E56078012859
:102870000AD100BF1F200B49096808700948006889
:10288000401C084908601DE0607802280CD100BF98
:10289000202004490968087002480068401C01496A
:1028A00008600FE0D0000020607803280AD100BF44
:1028B0002120FE4909680870FC480068401CFB495B
:1028C000086000BFB9E500212269002A1AD02269F8
:1028D000D06801E0491CC0680028FBD100BF2C2251
:1028E000F24B1B681A70F14A1268521CEF4B1A60C7
:1028F00000BF00BF1B681970EC4A1268521CEB4BFA
:102900001A6000BF99E52069002853D0206900783B
:1029100001284FD120694078012804D0022818D01E
:10292000032842D12BE000BF2820E0490968087045
:10293000DE480068401CDD49086000BF00BF2D2054
:1029400009680870D9480068401CD849086000BF71
:102950002FE000BF2920D54909680870D3480068D6
:10296000401CD249086000BF00BF2E2009680870D3
:10297000CE480068401CCD49086000BF19E000BF88
:102980002A20CA4909680870C8480068401CC7491D
:10299000086000BF00BF2F2009680870C3480068A6
:1029A000401CC249086000BF03E0032000F0F8FEAD
:1029B00000BF55E020690078192851D1206940787E
:1029C0000007000F012804D0022818D0032842D1A4
:1029D0002BE000BF2820B54909680870B34800689B
:1029E000401CB249086000BF00BF2D200968087074
:1029F000AE480068401CAD49086000BF2FE000BF32
:102A00002920AA4909680870A8480068401CA749FD
:102A1000086000BF00BF2E2009680870A348006846
:102A2000401CA249086000BF19E000BF2A209F494E
:102A3000096808709D480068401C9C49086000BFF8
:102A400000BF2F200968087098480068401C97490B
:102A5000086000BF03E0032000F0A2FE00BF00BF3B
:102A6000EBE4206900287DD020690078012879D125
:102A7000216988686178012904D002295FD003297F
:102A80005CD1C1E000BF2521884A126811708749D6
:102A90000968491C854A116000BF00BF00BF01469C
:102AA0001431126811700904090E804A12685170BD
:102AB000014614310902090E7C4A126891700146E0
:102AC0001431090E794A1268D17000BF774909683C
:102AD000091D764A116000BF00BF222112681170E3
:102AE00072490968491C714A116000BF00BF012189
:102AF000126811706D490968491C6C4A116000BF69
:102B000000BF01211268117068490968491C674AB1
:102B1000116000BF00BF2821126811706349096865
:102B2000491C624A116000BF00BF2F21126811705A
:102B30005E490968491C5D4A116000BFD2E000BFD0
:102B400026215A4A1268117058490968491C574A87
:102B5000116000BF00BF00BF014614311268117040
:102B6000090400E0C0E0090E504A126851700146A5
:102B700014310902090E4D4A126891700146143150
:102B8000090E4A4A1268D17000BF48490968091DF8
:102B9000464A116000BF00BF2321126811704349EB
:102BA0000968491C414A116000BF00BF00BF0121F4
:102BB0001268117000213D4A1268517000BF3B49F4
:102BC0000968891C394A116000BF00BF02211268E0
:102BD000117036490968491C344A116000BF00BFB2
:102BE00029211268117031490968491C2F4A116066
:102BF00000BF00BF2F21126811702C490968491CC1
:102C00002A4A116000BF6DE000BF2721274A1268E1
:102C1000117026490968491C244A116000BF00BF91
:102C200000BF01461431126811700904090E1F4AD1
:102C300012685170014600E054E314310902090E94
:102C40001A4A1268917001461431090E174A126827
:102C5000D17000BF15490968091D144A116000BFF1
:102C600000BF24211268117010490968491C0F4ADD
:102C7000116000BF00BF00BF012112681170002168
:102C80000A4A12685170094A12689170074A12681C
:102C9000D17000BF05490968091D044A116000BFD1
:102CA00000BF032112681170004901E0D00000202C
:102CB0000968491CFA4A116000BF00BF2A21126846
:102CC0001170F7490968491CF54A116000BF00BF3F
:102CD0002F2112681170F2490968491CF04A1160ED
:102CE00000BF00BF00BF00BF14E4206900287DD0F2
:102CF00020690078012879D12169886861780129E3
:102D000004D002295FD003295CD1C1E000BF252196
:102D1000E34A12681170E2490968491CE04A1160EF
:102D200000BF00BF00BF01461431126811700904D2
:102D3000090EDB4A12685170014614310902090E6E
:102D4000D74A1268917001461431090ED44A1268AC
:102D5000D17000BFD2490968091DD14A116000BF76
:102D600000BF222112681170CD490968491CCC4A64
:102D7000116000BF00BF012112681170C8490968C5
:102D8000491CC74A116000BF00BF042112681170BE
:102D9000C3490968491CC24A116000BF00BF28210D
:102DA00012681170BE490968491CBD4A116000BF14
:102DB00000BF2F2112681170B9490968491CB84A2F
:102DC000116000BFCDE000BF2621B54A1268117026
:102DD000B3490968491CB24A116000BF00BF00BF77
:102DE0000146143112681170090400E0BBE0090EBD
:102DF000AB4A12685170014614310902090EA84A03
:102E00001268917001461431090EA54A1268D170FA
:102E100000BFA3490968091DA14A116000BF00BF96
:102E20002321126811709E490968491C9C4A11604F
:102E300000BF00BF00BF0121126811700021984A35
:102E40001268517000BF96490968891C944A116044
:102E500000BF00BF05211268117091490968491C23
:102E60008F4A116000BF00BF2921126811708C4980
:102E70000968491C8A4A116000BF00BF2F211268EF
:102E8000117087490968491C854A116000BF68E0D4
:102E900000BF2721824A1268117081490968491CC4
:102EA0007F4A116000BF00BF00BF014614311268A5
:102EB00011700904090E7A4A1268517001461431E2
:102EC0000902090E764A1268917001461431090E02
:102ED000734A1268D17000BF71490968091D704AB0
:102EE000116000BF00BF2421126811706C4909688D
:102EF000491C6B4A116000BF00BF00BF012112686E
:102F000011700021664A12685170654A126891700A
:102F1000634A1268D17000BF61490968091D604A9F
:102F2000116000BF00BF0621126811705C4909687A
:102F3000491C5B4A116000BF00BF2A211268117052
:102F400057490968491C564A116000BF00BF2F212C
:102F50001268117052490968491C514A116000BF3A
:102F600000BF00BF00BFCDE3206900287ED02069EC
:102F7000007801287AD1216988686178012904D014
:102F8000022974D0032973D118E100BF2421444AD7
:102F90001268117042490968491C414A116000BF1A
:102FA00000BF00BF01461431126811700904090EF8
:102FB0003B4A12685170014614310902090E384A21
:102FC0001268917001461431090E354A1268D170A9
:102FD00000BF33490968091D314A116000BF00BFB5
:102FE0002521126811702E490968491C2C4A11606C
:102FF00000BF00BF00BF0146143112681170090400
:10300000090E274A12685170014614310902090E4F
:10301000234A1268917001461431090E204A126841
:10302000D17000BF1E490968091D1D4A116000BF0B
:1030300000BF22211268117019490968491C184AF9
:10304000116000BF00BF01211268117014490968A6
:10305000491C134A116000BF00BF012112681170A2
:103060000F490968491C0E4A116002E03AE119E073
:1030700036E100BF00BF28211268117008490968B5
:10308000491C074A116000BF00BF2B211268117054
:1030900003490968491C024A116000BF20E1000091
:1030A000D000002000BF2421FE4A12681170FD49A3
:1030B0000968491CFB4A116000BF00BF00BF014600
:1030C0001431126811700904090EF64A1268517021
:1030D000014614310902090EF24A12689170014644
:1030E0001431090EEF4A1268D17000BFED4909682A
:1030F000091DEC4A116000BF00BF26211268117043
:10310000E8490968491CE74A116000BF00BF00BFD9
:1031100001461431126811700904090EE14A12685F
:103120005170014614310902090EDE4A126891708D
:1031300001461431090EDB4A1268D17000BFD9492B
:103140000968091DD74A116000BF00BF232112681A
:103150001170D4490968491CD24A116000BF00BFF0
:1031600000BF0121126811700021CE4A126851700F
:1031700000BFCC490968891CCA4A116000BF00BF62
:10318000022112681170C7490968491CC54A1160BB
:1031900000BF00BF292112681170C2490968491C8B
:1031A000C04A116000BF00BF2B2112681170BD49D9
:1031B0000968491CBB4A116000BF91E000BF24218F
:1031C000B84A12681170B7490968491CB54A1160BC
:1031D00000BF00BF00BF014614311268117009041E
:1031E000090EB04A12685170014614310902090EE5
:1031F000AC4A1268917001461431090EA94A12684E
:10320000D17000BFA7490968091DA64A116000BF17
:1032100000BF272112681170A2490968491CA14A00
:10322000116000BF00BF00BF014614311268117069
:103230000904090E9B4A12685170014614310902B3
:10324000090E984A1268917001461431090E954A88
:103250001268D17000BF93490968091D914A116035
:1032600000BF00BF2421126811708E490968491CF3
:103270008C4A116000BF00BF00BF012112681170AD
:103280000021884A12685170864A12689170854AF6
:103290001268D17000BF83490968091D814A116015
:1032A00000BF00BF0321126811707E490968491CE4
:1032B0007C4A116000BF00BF2A2112681170794951
:1032C0000968491C774A116000BF00BF2B211268B2
:1032D000117074490968491C724A116000BF00BF2F
:1032E00000BF00BF0EE2206900287DD02069007871
:1032F000012879D1216988686178012904D00229DF
:1033000073D0032972D118E100BF2421654A1268E5
:10331000117064490968491C624A116000BF00BF0E
:1033200000BF01461431126811700904090E5D4A8C
:1033300012685170014614310902090E594A126887
:10334000917001461431090E564A1268D17000BFBF
:1033500054490968091D534A116000BF00BF252167
:10336000126811704F490968491C4E4A116000BF2C
:1033700000BF00BF01461431126811700904090E24
:10338000484A12685170014614310902090E454A33
:103390001268917001461431090E424A1268D170C8
:1033A00000BF40490968091D3E4A116000BF00BFC7
:1033B0002221126811703B490968491C394A116081
:1033C00000BF00BF01211268117036490968491C0D
:1033D000344A116000BF00BF0421126811703149E6
:1033E0000968491C2F4A02E03BE117E037E1116010
:1033F00000BF00BF2821126811702A490968491CC2
:10340000284A116000BF00BF2B21126811702549A6
:103410000968491C234A116000BF20E100BF242134
:10342000204A126811701F490968491C1D4A116021
:1034300000BF00BF00BF01461431126811700904BB
:10344000090E184A12685170014614310902090E1A
:10345000144A1268917001461431090E114A12681B
:10346000D17000BF0F490968091D0E4A116000BFE5
:1034700000BF2621126811700A490968491C094ACF
:10348000116000BF00BF00BF014614311268117007
:103490000904090E034A12685170014614310902E9
:1034A000090E01E0D00000209B4A1268917001468D
:1034B0001431090E984A1268D17000BF9649096804
:1034C000091D954A116000BF00BF232112681170C9
:1034D00091490968491C904A116000BF00BF00BFB4
:1034E00001211268117000218B4A1268517000BFCF
:1034F00089490968891C884A116000BF00BF0521FD
:103500001268117084490968491C834A116000BF20
:1035100000BF2921126811707F490968491C7E4A41
:10352000116000BF00BF2B21126811707A49096831
:10353000491C794A116000BF91E000BF2421764AFE
:103540001268117074490968491C734A116000BF00
:1035500000BF00BF01461431126811700904090E42
:103560006D4A12685170014614310902090E6A4A07
:103570001268917001461431090E674A1268D170C1
:1035800000BF65490968091D634A116000BF00BF9B
:1035900027211268117060490968491C5E4A116050
:1035A00000BF00BF00BF014614311268117009044A
:1035B000090E594A12685170014614310902090E68
:1035C000554A1268917001461431090E524A126828
:1035D000D17000BF50490968091D4F4A116000BFF2
:1035E00000BF2421126811704B490968491C4A4ADE
:1035F000116000BF00BF00BF0121126811700021DF
:10360000454A12685170444A12689170424A1268E1
:10361000D17000BF40490968091D3F4A116000BFD1
:1036200000BF0621126811703B490968491C3A4ADB
:10363000116000BF00BF2A21126811703649096865
:10364000491C354A116000BF00BF2B211268117060
:1036500031490968491C304A116000BF00BF00BFF2
:1036600000BF4FE000BF00BF00202B490968087071
:1036700029490968487028490968887026490968F5
:10368000C87000BF24480068001D2349086000BFBF
:1036900038E0A0780821084000282DD16078012862
:1036A00004D002280ED0032824D117E000BF2D201B
:1036B00019490968087018480068401C16490860D4
:1036C00000BF18E000BF2E20134909680870124897
:1036D0000068401C1049086000BF0CE000BF2F20AC
:1036E0000D49096808700C480068401C0A490860C8
:1036F00000BF00E000BF00BF04E003E0082000F0CE
:103700004FF800BF00BFE068002802D0E068FEF775
:1037100091FC002010BD0000D000002070B50646CE
:103720000021304600F049FE80211348FCF7A7FD38
:10373000124800210160124908600F4811490860D1
:10374000344614E02546EC680020E8602846FEF781
:1037500071FC002C0AD000BF2B200A4909680870B0
:1037600008480068401C0749086000BF00BF002CE3
:10377000E8D1002070BD0000500C0020500B00204C
:10378000CC000020D00000200148007870470000E5
:10379000D40000200020014908707047D4000020A8
:1037A000014602480170002070470000D40000204C
:1037B00001468800014A105870470000D8000020D8
:1037C00010B50446204600F077F900F0C7F8FFF77F
:1037D000E1FF002010BD000070B50546E81C85081B
:1037E000AD001A48046800E06468002C04D0284644
:1037F000083021688142F7D9002C10D100F040F840
:103800001248046800E06468002C04D028460830A0
:1038100021688142F7D3002C01D1002070BD2946D8
:103820002046FEF7FAFB21460848FEF7DFFB0020A2
:10383000606021460648FEF776FB294620460830A0
:10384000FCF71DFD20460830E8E7000014010020C9
:103850001801002070B504462546083D2946064853
:10386000FEF7C4FB29460548FEF75DFB29460348E1
:10387000FEF77BFB70BD0000180100201401002042
:1038800070B50026114805681CE0002410E01820DF
:1038900060430F494018407C002808D0182060433E
:1038A0004018416928460830814200D102E0641C7A
:1038B000082CECDB00BF2E466D68082C02D13019B5
:1038C000FFF7C8FF002DE0D170BD000018010020F7
:1038D000900A002010B580210748FCF7D0FC06486C
:1038E00006490860782009680860002003490968D3
:1038F00048600349086010BDD00800201401002072
:103900001801002010B50446204600F0D5F800F05C
:1039100025F800F007FEFFF73DFFFFF7DBFF002073
:1039200010BD00000246002107E0142048430A4B66
:10393000185C002800D102E0491C1029F5DB00BF0B
:10394000102901D10020704714204843024B1A541B
:1039500014204843C018F6E75009002010B5FF2195
:1039600041310248FCF78BFC002010BD50090020BB
:1039700070B505460220FFF7D5FF0446002C04D1A0
:103980000620FFF70DFF002070BD25712046FBE7E4
:10399000F8B50746002400260025384600F004FE4E
:1039A0000446002C0FD1384600F024FA0446002CBF
:1039B00007D1384600F07AF90446002C04D00426DA
:1039C00002E0022600E00126002C1AD00120FFF7B9
:1039D000A9FF0546002D04D10620FFF7E1FE0020D7
:1039E000F8BD012E04D0022E04D0042E06D103E02F
:1039F000AC6003E0AC6001E0AC6000BF00BFAE7043
:103A000002E00D20FFF7CCFE2846E9E770B5054639
:103A10000320FFF787FF0446002C04D10620FFF7A0
:103A2000BFFE002070BD65602046FBE770B505460F
:103A30000420FFF777FF0446002C04D10620FFF78F
:103A4000AFFE002070BD65602046FBE770B50546FF
:103A50000620FFF767FF0446002C04D10620FFF77D
:103A60009FFE002070BD65602046FBE770B50546EF
:103A70000520FFF757FF0446002C04D10620FFF76E
:103A80008FFE002070BD2846FCF711FC461C304616
:103A9000FFF7A2FE60602846FCF709FC06463246A6
:103AA00029466068FCF7F6FB2846FCF700FC00227C
:103AB00061680A542046E5E710B504469C2120467B
:103AC000FCF7DDFB002010BDF8B504460F460025CD
:103AD0002760201D216800F059FC201D00F060FCCB
:103AE00006465EE01F2E15D1012161719820005914
:103AF000002808D0204601F073FAE860E868002842
:103B000007D0ED6805E0204601F06AFA05469820E6
:103B100005513CE0142E09D0152E07D0162E05D0E5
:103B2000172E03D0182E01D0192E15D10121617145
:103B300098200059002808D0204601F0C2FCE86017
:103B4000E868002822D0ED6820E0204601F0B9FCAA
:103B500005469820055119E001216171982000590E
:103B600000280DD0204601F03BFAE860E868002804
:103B700001D0ED680AE0201D00F012FC064605E0C9
:103B8000204601F02DFA05469820055100BF00BFE0
:103B900098200059002800D107E0201D00F000FC0B
:103BA0000646212E01D0202E9CD100BFF8BD00007A
:103BB000F3B583B004462848006820304078C00739
:103BC000C00F002802D025A002F038FA2046049940
:103BD000FFF77AFFFFF7D8FD002804D19821085994
:103BE000FFF79CFD09E0FFF7CFFD0646FFF7E0FD7C
:103BF000054629461AA002F021FAFFF7C5FD002864
:103C000024D100F0EFFC00F04BF8C6B2202E11DDFD
:103C10007E2E0FDA00F044F8029000F041F8019097
:103C200000F03EF8C7B239460EA0029B019A02F09E
:103C300005FA0AE000F034F8074600F031F83A4699
:103C4000014602900CA002F0F9F900BF2046FFF7F0
:103C5000B7FD05B0F0BD0000B40000200A00000070
:103C600025730A0009272563272C2025642C203082
:103C700078253038780A00000925642C2030782512
:103C80003038780A0000000070B504460D4603483D
:103C9000006802F06EFC002070BD0000B40000203F
:103CA0000148006870470000500B0020F8B5064638
:103CB0001248056808E031462868FCF7FFFA00283A
:103CC00001D12846F8BD0C350D4800688542F2D375
:103CD0000C4804680DE03046FCF7E9FA07463A461E
:103CE00031466068FCF7F8FA002801D1201DE9E7A9
:103CF0002468002CEFD10020E4E70000B800002089
:103D0000BC00002028010020024A1060024A116015
:103D100070470000B8000020BC0000201FB51E49FD
:103D20001E48FFF7F1FF1E491E4800F059F8FF201A
:103D3000193002F017FA1C4908600846006800288C
:103D400006D11AA002F07AF90020C04304B010BDD9
:103D5000FF21193114480068FCF791FA00231A4634
:103D600018A11148006802F0F3FB0A201921012272
:103D70005202164B00930192029103900023144AC1
:103D800014A1164802F0E8FE0446002C02D11348A4
:103D900002F03CFF0020D9E74C820000EC810000DB
:103DA0007C8200006C820000B40000206E6F206DE9
:103DB000656D6F727920666F72207368656C6C0A2E
:103DC000000000007368727800000000D006002038
:103DD000513E0000747368656C6C0000580600204A
:103DE000024A1060024A116070470000C0000020C3
:103DF000C4000020F8B506461248056808E03146C0
:103E00002868FCF75BFA002801D12846F8BD103578
:103E10000D4800688542F2D30C4804680DE0304636
:103E2000FCF745FA07463A4631466068FCF754FA13
:103E3000002801D1201DE9E72468002CEFD10020E3
:103E4000E4E70000C0000020C40000201C010020A6
:103E50001CB50121FE48006820304170FC48006814
:103E60002430FFF74FFDFA480068FF300130406909
:103E7000002817D101F08AFCF5490968FF310131AA
:103E80004861F3490968FF3101314869F14901F09E
:103E90000BFEEF490968FF3101314869FF214431C8
:103EA00001F08AFDECA002F0C9F866E20021C943E6
:103EB000E748006802F07FFB002800D05DE24DE299
:103EC000684600791B2805D10121E14800682030AF
:103ED000017043E2DE4800682030007801280FD1ED
:103EE000684600795B2805D10221D9480068203056
:103EF000017033E20021D64800682030017058E09C
:103F0000D348006820300078022852D10021D048E0
:103F100000682030017068460079412800D11DE218
:103F200068460079422800D118E2684600794428A2
:103F300016D1C7480068FF300130407C00280ED001
:103F4000C7A002F07BF8C2480068FF300130407C17
:103F5000401EC1B2BE480068FF3001304174FDE12F
:103F600068460079432824D1B9480068FF30013001
:103F7000417CB7480068FF300130007C814217DA8D
:103F8000B3480068FF300130427CB1480068C0305F
:103F9000815CB4A002F052F8AD480068FF300130F7
:103FA000407C401CC1B2AA480068FF300130417417
:103FB000D4E1684600790D2819D1A5490968FF3177
:103FC000013101236A464869002101F04FFD0128B3
:103FD0000AD168460078002802D10D20019005E042
:103FE00068460178019101E00D200190B1E068463A
:103FF0000079092822D1002403E099A002F01EF8DC
:10400000641C93480068FF300130407CA042F4DC1F
:104010008F480068C03003F0ABF98D480068C030AD
:10402000FCF745F9C1B28A480068FF3001300174DD
:1040300087480068FF30013041748FE1684600799D
:104040007F2803D068460079082873D1804800682B
:10405000FF300130407C002800D17FE17C480068BF
:10406000FF300130007C401EC1B279480068FF304B
:104070000130017476480068FF300130407C401EFA
:10408000C1B273480068FF30013041747048006865
:10409000FF300130017C6E480068FF300130407C09
:1040A000814248DD6A4B1B68FF3301331D7C684B3E
:1040B0001B68FF3301335B7CEA1A654B1B68FF33D7
:1040C00001335B7C5B1C624D2D68C0355919604B18
:1040D0001B68FF3301335D7C5D4B1B68C033E81800
:1040E00002F0F6F800215A480068FF300130027CE7
:1040F00057480068C030815455480068FF3001308F
:10410000427C53480068C030111857A001F096FF58
:104110004F480068FF300130447C03E050A001F0BC
:104120008DFF641C4A480068FF300130007CA042CB
:10413000F4DA0DE00DE04EA001F080FF00214448CC
:104140000068FF300130027C41480068C030815473
:1041500004E1684600790D2803D0684600790A28F2
:1041600038D13B213A480068FF300130027C3848A2
:104170000068C030815436480068FF300130007C50
:10418000002807D032480168C03100682430FFF7AA
:104190000FFD0AE02E48006820304078C007C00FAD
:1041A000002802D033A001F049FF2BA001F046FF08
:1041B000502127480068C030FCF761F800212448EE
:1041C0000068FF300130017421480068FF30013081
:1041D0004174D0E01E480068FF300130007C502858
:1041E00005DB00211A480068FF30013001741848CF
:1041F0000068FF300130417C15480068FF30013015
:10420000007C814265DA124B1B68FF3301331D7C51
:104210000F4B1B68FF3301335B7CEA1A0C4B1B68A6
:10422000FF3301335D7C0A4B1B68C033E918084B30
:104230001B68FF3301335B7C5B1C054D2D68C0356B
:10424000581902F045F8684601790148006813E002
:10425000B4000020893C000066696E73683E3E0031
:1042600008000000256300000825732020080000D6
:10427000082008000A000000FF300130427C3F485F
:104280000068C03081543D48006820304078C00745
:10429000C00F00280BD039480068FF300130427C45
:1042A00036480068C030111835A001F0C7FE334809
:1042B0000068FF300130447C03E032A001F0BEFE14
:1042C000641C2E480068FF300130007CA042F4DC02
:1042D00017E06846017929480068FF300130027C08
:1042E00026480068C0308154244800682030407857
:1042F000C007C00F002804D06846017922A001F051
:104300009DFE002001901D480068FF300130007CB8
:10431000401CC1B219480068FF30013001741748D1
:104320000068FF300130407C401CC1B21348006877
:10433000FF300130417411480068FF300130007CCB
:1043400050280ADB00210D480068FF30013001745D
:104350000A480068FF300130417400BF074909680E
:10436000FF310131012301AA4869002101F07EFBE0
:10437000012800D1A4E500BF00BF97E5B4000020EC
:1043800025730000080000002563000070B5054695
:104390000C4694212846FBF772FF9020445170BDD3
:1043A00010B504466078002802D00020607002E05A
:1043B000204603F057FA207A10BD70B504460D462A
:1043C000002C65D02078132808D02078152805D037
:1043D0002078162802D020781A2804D108212069D4
:1043E000FFF7EBFF0DE02078192806D1002D04D04F
:1043F00000212069FFF7E1FF03E029462069FFF76C
:10440000DCFF0021E068FFF7D8FFA078042802D085
:10441000A0782843A0702069002804D02069407843
:104420006070002070BD2078012865D1A078C00799
:10443000C00F00282DD0A668002E29D0707C030064
:10444000FDF7C4F90F21091B0C0D1A10111C1415CE
:104450001D16171E21000020607018E000BF01200B
:10446000607014E000BF0220607010E000BF00BF69
:1044700000BF032060700AE000BF00BF00BF00BFA4
:104480000320607003E00320FFF78AF900BF00BF3C
:1044900046E0A07802210840002841D0A668002EFE
:1044A00029D0307A0300FDF791F90F21091B0C0D7B
:1044B0001A10111C14151D16171E21000020607003
:1044C00018E000BF0120607014E000BF022060709F
:1044D00010E000BF00BF00BF032060700AE000BF13
:1044E00000BF00BF00BF0320607003E00320FFF7A0
:1044F00057F900BF00BF13E02078022802D1012045
:1045000060700DE02078032808D02078042805D0BA
:104510002078052802D02078062801D10320607079
:1045200000207FE710B5C0210248FBF7A8FE00205D
:1045300010BD0000900A0020F8B506460F46002581
:10454000ED43002417E018216143164A8818102211
:104550003146FBF7C1FE002801D1401EF8BD1820EE
:10456000604310494018407C002803D1681C002893
:1045700000D12546641C082CE5DB681C002801D10D
:10458000401EEBE718216943064A8818102231467D
:10459000FBF780FE18206843024A801847742846BB
:1045A000DCE70000900A002070B5054600240BE00F
:1045B000182161430A4A881810222946FBF78CFE0D
:1045C000002800D102E0641C082CF1DB00BF082C9D
:1045D00001D1002070BD1820604301494018F9E75F
:1045E000900A002010B50F480F4908600F48104985
:1045F00008600BE00E48006804780D480068401C15
:104600000B490860A1000B4A5058804708480068D1
:104610000649401A04D406480068401A8028E9DB9D
:1046200010BD0000500B002020010020500C002085
:1046300024010020947C000030B504460D4620463D
:10464000FCF7A2FF204630BD10B502A001F0F6FC39
:10465000002010BD48656C6C6F2052542D54687258
:10466000656164210A00000070B51FA001F0E6FC3E
:10467000224804680EE0022221A12068FBF72CFEEC
:10468000002800D105E01FA06268216801F0D6FC77
:1046900000BF0C341F4800688442ECD31E480568F4
:1046A00004E01EA0696801F0C9FC2D68002DF8D156
:1046B0001CA001F0C3FC2048046805E011A062685A
:1046C000216801F0BBFC10341C4800688442F5D31B
:1046D0001B48066804E011A0716801F0AFFC366861
:1046E000002EF8D1002070BD2D2D46756E637469C3
:1046F0006F6E204C6973743A0A000000B800002005
:104700005F5F0000252D313673202D2D2025730A83
:1047100000000000BC000020280100205B6C5D2030
:1047200025730A002D2D5661726961626C65204CFB
:104730006973743A0A000000C0000020C400002021
:104740001C01002010B50248FDF79AF810BD0000CA
:104750006000002010B50848016808A001F06EFC58
:104760000B4801680BA001F069FC0F4801680FA01D
:1047700001F064FC10BD000030000020746F746113
:104780006C206D656D6F72793A2025640A00000017
:104790003400002075736564206D656D6F7279203B
:1047A0003A2025640A000000380000206D61786915
:1047B0006D756D20616C6C6F6361746564206D65EF
:1047C0006D6F72793A2025640A000000F0B585B05B
:1047D0000546002003900290019000907248066800
:1047E00032E072A0316802F017FE002800D12AE002
:1047F0002846316802F010FE002823D103980028D3
:104800000BD16BA001F01AFC2878002805D0306885
:1048100000900098FBF74BFD01900398401C80B27C
:1048200003902878002808D03168009802F0E2FD53
:10483000044601998C4200DA019461A072683168E3
:1048400001F0FCFB00BF0C36614800688642C8D30B
:10485000604807682CE02846796802F0DDFD0028F2
:1048600025D1039800280ED151A001F0E7FB28784C
:10487000002808D00098002805D17868009000989A
:10488000FBF715FD01900398401C80B20390287837
:10489000002808D07968009802F0ACFD0446019821
:1048A000844200DA01944CA0796801F0C7FB3F68AC
:1048B000002FD0D14A4806682DE02846316802F022
:1048C000ABFD002826D1029800280ED145A001F0AA
:1048D000B5FB2878002808D00098002805D130685A
:1048E00000900098FBF7E3FC01900298401C80B216
:1048F00002902878002808D03168009802F07AFDEC
:1049000004460198844200DA01942DA0726831684F
:1049100001F094FB1036374800688642CDD3364804
:104920000068049032E004984168284602F074FD63
:10493000002828D1029800280FD12AA001F07EFB80
:104940002878002809D00098002806D104984068EB
:1049500000900098FBF7ABFC01900298401C80B2DD
:1049600002902878002809D004984168009802F045
:1049700041FD04460198844200DA0194049841689C
:104980001EA001F05BFB04980068049004980028C6
:10499000C9D10098002804D02846019A009901F056
:1049A00015FF05B0F0BD0000B80000205F5F0000FB
:1049B0002D2D66756E6374696F6E3A0A00000000F3
:1049C000252D313673202D2D2025730A000000007F
:1049D000BC000020280100205B6C5D2025730A00CC
:1049E000C00000202D2D7661726961626C653A0A03
:1049F00000000000C40000201C0100205B765D2048
:104A000025730A0010B50248FCF7AEFF10BD000088
:104A10005000002010B50248FDF722F810BD00003C
:104A20004000002010B50248FDF7D6F810BD000088
:104A30007000002000BF06E0592048490860162099
:104A4000086088200860454800680128F4D100BF4C
:104A50000420FBF7DFFD1020FBF716FF00210720E5
:104A6000FBF7CAFE0120FBF7D5FD0120FBF70CFF89
:104A70003B48FBF797FE3B48FBF726FD3948401CB7
:104A8000FBF722FD002211463648FBF7CBFE002241
:104A900011463448401CFBF7C5FE05200007C06BDB
:104AA0003149084005210907C8630846C06B032146
:104AB000084305210907C8630846406B2B49084095
:104AC0000521090748630846406B03218902084312
:104AD0000521090748630846006B25490840FF3057
:104AE000013005210907086300BF00201B49086049
:104AF00000BF2048FCF72EFDE12149021E48FCF7CB
:104B00000BFE1C48401CFCF725FDE12149021B4817
:104B1000FCF702FE1A4801681AA0FCF747FE1DA028
:104B2000FCF744FEFBF7FCFA01F0ACF801F096FD4F
:104B300001F020FF1D491E4801F064FE01F0DCFE7B
:104B400000F0B0FD01F024FF01F0E8FF19A0FCF730
:104B50002DFE01F0F7FE00BFFEE70000000100504F
:104B600080F0FA02103D8027FCFCFFFFF3F3FFFF0B
:104B7000FEFEFFFE1000000400000540000015408E
:104B8000080000200A0A4350552040202564487A36
:104B90000A0000000A0A554152542053616D706C9E
:104BA000652050726F6772616D0A0000001000206E
:104BB000D00D00200A0A554152542053616D706C8B
:104BC000650A0000F8B507460C4616463846FEF75B
:104BD000A9FE0546002C04D0002D02D02C61E66011
:104BE00002E00E20FEF7DCFD2846F8BDF8B50646CB
:104BF00000200090002400F0DBFF37680AE0384610
:104C00000C380090009801F0C3FD0546A54200DD78
:104C10002C463F68B742F2D100F0DAFF082C01DCE5
:104C2000002C00D108242046F8BD000010B5044631
:104C300002E004A001F002FA2046641E0028F8D128
:104C400010BD00002D00000030B51B4C43682468E7
:104C50001919884216D04B88002B13D1174B1B68AB
:104C600099420FD0164B1B688B4201D1144B186030
:104C70004B684360104B1B68C31A0F4D4C682D687E
:104C80006419A3600C4C836824681A19824212D0FC
:104C90005388002B0FD10A4B1B68834201D1084B6C
:104CA0001A6043685360044B1B68D41A024D436872
:104CB0002D685B199C6030BD240000202800002076
:104CC0002C000020FFB58BB004461546169E1498A4
:104CD000039040203040002801D05B4800E05B4852
:104CE000049010203040002801D076087600F007AC
:104CF000C00F002801D0302000E020200A900020C2
:104D0000099002203040002812D0002D03DA2D2017
:104D100009906D420CE004203040002802D02B2086
:104D2000099005E008203040002801D0202009909B
:104D30000027002D05D1302238467F1C05A90A54D2
:104D40001DE01AE00E98029002980A280AD128461F
:104D50000A21FBF751FA019128460A21FBF74CFA88
:104D6000054603E02807000F01902D0901980499DA
:104D70000A5C38467F1C05A90A54002DE2D115981B
:104D8000874200DD159715990398401A039011206A
:104D90003040002814D10998002805D00398002835
:104DA00002DD0398401E039005E00C98844201D870
:104DB00020202070641C0398411E03910028F4DC1D
:104DC0000998002808D00C98844204D809982070CB
:104DD0000398401E0390641C1020304000280BD123
:104DE00005E00C98844201D80A982070641C03984E
:104DF000411E03910028F4DC05E00C98844201D8A0
:104E000030202070641C1598411E1591B842F4DCC6
:104E100006E00C98844202D805A8C05D2070641C8E
:104E200038467F1E0028F4DC05E00C98844201D847
:104E300020202070641C0398411E03910028F4DC9C
:104E400020460FB0F0BD0000317C0000207C000047
:104E5000F8B50446204600F01AF90746201DFFF772
:104E60009FFA064624E0204600F011F90546002D81
:104E700003D10520FEF794FC16E0062E08D0082E7C
:104E80000DD12A4639460820FFF79CFE07460AE066
:104E90002A4639460720FFF795FE074603E005201E
:104EA000FEF77EFC00BF00BF201DFFF779FA064623
:104EB000082ED8D0062ED6D0012161713846F8BD13
:104EC000F8B50446204600F0E9F90746201DFFF733
:104ED00067FA064613E0204600F0E0F90546002D8B
:104EE00003D10520FEF75CFC05E02A4639460C207C
:104EF000FFF768FE0746201DFFF752FA06460D2E03
:104F0000E9D0012161713846F8BDF8B50446204664
:104F100000F098F80646201DFFF742FA05460C2DD2
:104F200009D12046FFF7F1FF07463A4631461320E4
:104F3000FFF748FEF8BD012161713046FAE7F8B588
:104F40000446201DFFF72CFA0646012E17D12046F5
:104F500000F0DDF90746201DFFF722FA0646022E73
:104F600004D00120FEF71CFC012161712046FFF7EF
:104F7000E6FF0546002D02D06F702846F8BD0121DE
:104F80006171204600F040FAF8E7F8B50446204683
:104F9000FFF796FF0746201DFFF702FA064613E0CB
:104FA0002046FFF78DFF0546002D03D10520FEF7B3
:104FB000F7FB05E02A4639460E20FFF703FE0746B9
:104FC000201DFFF7EDF906460F2EE9D00121617192
:104FD0003846F8BD10B504462046FFF796FF10BDD1
:104FE00070B504460026201DFFF7DAF90546042DAA
:104FF00010D0012161712046FFF7ECFF0646201D0D
:10500000FFF7CEF90546042D04D00120FEF7C8FBBA
:1050100001216171304670BD70B504460D46201DFA
:10502000FFF7BEF906461F2E04D00120FEF7B8FB9D
:10503000012161711022214614312846FBF72AF91B
:10504000002070BDF8B504462046FFF79EFF0746D6
:10505000201DFFF7A5F9064613E02046FFF795FF50
:105060000546002D03D10520FEF79AFB05E02A46F0
:1050700039460D20FFF7A6FD0746201DFFF790F9E2
:1050800006460E2EE9D0012161713846F8BDF8B50B
:1050900004462046FFF753FF0746201DFFF780F91F
:1050A00005462EE02046FFF74AFF0646002E03D1B4
:1050B0000520FEF775FB20E0052D04D00A2D09D050
:1050C0000B2D15D10DE0324639460920FFF77AFD48
:1050D000074611E0324639460A20FFF773FD0746BE
:1050E0000AE0324639460B20FFF76CFD074603E025
:1050F0000520FEF755FB00BF00BF201DFFF750F94C
:105100000546052DCED00A2DCCD00B2DCAD00121BD
:1051100061713846F8BDF8B505462846FFF7F5FE3B
:105120000446002C00D1F8BD2746281DFFF738F9AA
:1051300006460FE02846FFF7E8FEE060E06800283A
:1051400001D0E46802E00520FEF72AFB281DFFF7E6
:1051500027F90646032EEDD0012169713846E2E7B2
:10516000F8B50446204600F04AF80746201DFFF730
:1051700017F9054639E0012D12D0072D02D0092D6F
:105180002DD106E0002239461720FFF71BFD074608
:1051900026E0002239461820FFF714FD07461FE0DD
:1051A0000026201DFFF7FCF80546022D10D0012136
:1051B00061712046FFF7AFFF0646201DFFF7F0F8AC
:1051C0000546022D04D00120FEF7EAFA01216171A3
:1051D000324639461220FFF7F5FC074600E000BFD3
:1051E00000BF201DFFF7DCF80546072DC3D0092DB1
:1051F000C1D0012DBFD0012161713846F8BD70B515
:1052000086B00446201DFFF7CBF805461C2D2DD097
:1052100006DC012D15D01A2D2CD01B2D37D121E005
:105220001D2D2BD01E2D2ED01F2D30D101216171AF
:1052300001A92046FFF7F0FE01A8FEF7A9FB06B082
:1052400070BD2046FFF7C6FE0646201DFFF7A8F8F2
:105250000546022D04D00120FEF7A2FA012161715A
:105260003046ECE72069FEF7D1FBE8E72069FEF75E
:10527000DDFBE4E7207CFEF77BFBE0E72046143013
:10528000FEF7F4FBDBE70020FEF7E0FBD7E70120A9
:10529000FEF786FA00BF00BF0020D0E7F8B504464D
:1052A0002046FFF7D5FD0746201DFFF779F8064693
:1052B00025E02046FFF7CCFD0546002D03D1052053
:1052C000FEF76EFA17E0112E02D0122E0ED106E074
:1052D0002A4639461020FFF775FC07460AE02A46A1
:1052E00039461120FFF76EFC074603E00520FEF764
:1052F00057FA00BF00BF201DFFF752F80646112ED7
:10530000D7D0122ED5D0012161713846F8BD70B5C5
:1053100005460026281DFFF743F80446142C07D045
:10532000152C05D0162C03D0172C01D0182C14D115
:10533000204614380300FCF749FA050406080A0C55
:105340000E00012608E0032606E0062604E00926F2
:1053500002E00C2600E050E029E0192C26D1281D9F
:10536000FFF71EF80446142C07D0152C05D0162C78
:1053700003D0172C01D0182C12D1152C06D0162CC6
:1053800006D0172C06D0182C08D105E0042606E01C
:10539000072604E00A2602E00D2600E02DE006E0E4
:1053A000012169710220FEF7FBF900E025E0281DCC
:1053B000FEF7F6FF0446052C1BD13300FCF706FA76
:1053C0000E1608160A0B160D0E16101116131416CB
:1053D00002260DE000BF05260AE000BF082607E010
:1053E00000BF0B2604E000BF0E2601E0022600BF2E
:1053F00001E001216971304670BD0121697103200E
:10540000FEF7CEF93046F7E7F8B50446201DFEF763
:10541000C7FF0546681F0300FCF7D8F90C39070DD4
:1054200017254D4D4D434D4D2F4D2046FFF787FD20
:1054300006463046F8BD2046FFF781FD06460022AD
:1054400031461520FFF7BEFBF4E72046FFF777FD56
:1054500006460020FEF7EAFA07463246394608209B
:10546000FFF7B0FBE6E72046FFF769FD064600229E
:1054700031461620FFF7A6FBDCE72046FFF75FFD6D
:105480000646002231460F20FFF79CFBD2E720465C
:10549000FFF755FD0646002231461920FFF792FB23
:1054A000C8E72046FFF74BFD0646002231461A208A
:1054B000FFF788FBBEE7012161712046FFF750FE30
:1054C000B8E7F0B589B004460020029000262046D7
:1054D000FFF71DFF089003A92046FFF79DFD002858
:1054E00008D103A80899FFF727F8002802DA04205A
:1054F000FEF756F9201DFEF753FF0546032D04D095
:10550000042D70D00C2D6FD16FE003A92046FFF75A
:1055100083FD002808D103A80899FFF70DF800289B
:1055200002DA0420FEF73CF9201DFEF739FF05469C
:105530000C2D15D12046FFF7E8FC0746002F0FD0B1
:1055400003A8FEF725FA01903A4613200199FFF7C8
:1055500039FB06460296201DFEF722FF054600BFD6
:1055600035E003A92046FFF757FD002808D103A81E
:105570000899FEF7E1FF002802DA0420FEF710F98F
:10558000201DFEF70DFF05460C2D20D12046FFF70C
:10559000BCFC0746002F1AD003A8FEF7F9F90190CA
:1055A0000298002807D03A4613200199FFF70AFB1A
:1055B000F060F66806E03A4613200199FFF702FB17
:1055C00006460296201DFEF7EBFE054600BF032DA2
:1055D000C7D0042D04D00120FEF7E2F8012161714B
:1055E000029809B0F0BD56E057E02046FFF78DFC69
:1055F0000746002F0ED003A8FEF7CAF901903A46DD
:1056000013200199FFF7DEFA06460296201DFEF7E9
:10561000C7FE054634E003A92046FFF7FDFC00283D
:1056200008D103A80899FEF787FF002802DA0420B2
:10563000FEF7B6F8201DFEF7B3FE05460C2D1FD170
:105640002046FFF762FC0746002F19D003A8FEF79B
:105650009FF901900298002807D03A46132001993B
:10566000FFF7B0FAF060F66806E03A4613200199B9
:10567000FFF7A8FA06460296201DFEF791FE0546A2
:10568000032DC8D0042D04D00120FEF789F8012194
:1056900061710298A5E70298A3E70220FEF780F85F
:1056A00000209EE71CB50520192101235B02012281
:1056B00000910190164917A001F094F9164908606D
:1056C00008460068002804D00846006801F09EFAE9
:1056D00002E00020C0431CBD0520192101235B020C
:1056E0000222009101900A490CA001F07BF90C49BB
:1056F000086008460068002804D00846006801F0E9
:1057000085FA02E00020C043E5E70020E3E700005F
:105710003D7400007431000000000020743200006D
:105720000400002070B504462068012800D170BD37
:10573000FAF7F6FC054601202060201D0168814231
:1057400001D1012100E0002100290BD1606806464B
:10575000143E304601F016FA2846FAF7E5FC00F050
:1057600069FE02E02846FAF7DFFC00BFDFE7000031
:1057700010B5044C02E020688047241D0248844292
:10578000F9D310BDD8810000DC8100000148006819
:10579000704700002000002070B505460B480668E1
:1057A000284600F0DFF80446002C0DD007480068BA
:1057B000002803D00548006800F0B3F843212046D4
:1057C00000F0FAF801480460304670BD2000002067
:1057D000F8B504460D461646FAF7A2FC0746A0881F
:1057E000E188884205D13846FAF79EFC0320C04381
:1057F000F8BD2188A088FAF715FDC800A1680858EF
:1058000028602188A088FAF70DFDC800A16840181B
:10581000406830603846FAF787FC0020E8E7FFB5BB
:1058200081B004460F46002601F0C8F90546FAF794
:1058300077FC009028E00498002801D1861E62E0E1
:1058400000202863284601F0F9F929461431204642
:10585000143000F04BFC0498002809DD04AA002154
:105860002846443001F0C8FA2846443001F014FBC1
:105870000098FAF759FC00F0DDFD2E6BFAF750FCAA
:105880000090002E00D03EE0A088E1888842D2D06F
:105890002188A088FAF7C6FCC800A16808583860BB
:1058A0002188A088FAF7BEFCC800A16840184168AA
:1058B00003980160A088401CA080E088A188401A5D
:1058C000618888421EDC20460C3000F026FC00284F
:1058D0000BD1E0680546143D284601F053F90098C5
:1058E000FAF722FC00F0A6FD02E00098FAF71CFC93
:1058F000E069002803D003212046E2699047304642
:1059000005B0F0BD00BF0098FAF70EFC002E06D1DE
:10591000E069002803D001212046E2699047304623
:10592000EEE770B504460025A07E002801D1401E98
:1059300070BDA07E401EA076A07E002801D0002071
:10594000F6E7E06A002803D02046E16A884705466A
:10595000002D02D0A81D002801D100202083284658
:10596000E6E70000F8B5064601F028F9002801D066
:1059700000F01EF90F4D6C6811E027460C3F08221D
:105980003146384600F00DFF002807D101F016F926
:10599000002801D000F01CF93846F8BD2468281D05
:1059A0008442EAD101F00AF9002801D000F010F990
:1059B0000020F2E75C00002070B504460E4600258A
:1059C000E08A10210840002813D1606A00280CD01A
:1059D0002046616A88470546002D06D02A462146A2
:1059E00014A000F02BFB284670BDE08A102108436C
:1059F000E082E08A08210840002806D0208B084079
:105A0000002802D00620C043EEE7A06A002804D098
:105A100031462046A26A90470546002D02D0A81DB7
:105A2000002805D1082030432083A07E401CA076AA
:105A30002846D9E7546F20696E697469616C697A88
:105A400065206465766963653A2573206661696CD3
:105A500065642E20546865206572726F7220636FD2
:105A600064652069732025640A000000FFB581B0D9
:105A700004460D461646A07E002805D1401E00F0C3
:105A8000D7FD002005B0F0BD206B002806D0276BA5
:105A9000324629462046049BB847F3E70520C04319
:105AA00000F0C6FD0020EDE70246D16100207047FE
:105AB000FFB581B004460D461646A07E002805D1EC
:105AC000401E00F0B5FD002005B0F0BD606B002861
:105AD00006D0676B324629462046049BB847F3E759
